:03000000020315E3
:0C031500787FE4F6D8FD75812102035CBE
:0B051900C10B011900011A00011800BD
:1001E800D204D205D206D20775101E751119D2AFE6
:1001F8007F0A7E001203A112041A300B43C20B7B44
:10020800007A007912120458920830082AE513AED1
:10021800127804CEA2E713CE13D8F8FBAA067C0006
:100228007D0AFF12000E8D0FAE02AF037C007D0A1F
:1002380012000E8F0E8006750F12750E1212052F02
:10024800A2B39203A203300701B3502512056AA294
:100258000330B301B3401A2007130510E51075F0F9
:100268000A8485F009E51075F00A84F508A203925E
:1002780007A2B29202A202300601B3502512056A03
:10028800A20230B201B3401A2006130511E5117518
:10029800F00A8485F00BE51175F00A84F50AA202CC
:1002A8009206A2B19201A201300501B350251205B0
:1002B8006AA20130B101B3401A2005131510E510E8
:1002C80075F00A8485F009E51075F00A84F508A22E
:1002D800019205A2B09200A200300401B3400302CB
:1002E80001FF12056AA20030B001B350030201FFFA
:1002F8002004131511E51175F00A8485F00BE5113A
:0D03080075F00A84F50AA20092040201FFBC
:1003A10075170075161075150E751400E4FCFDAB7C
:1003B10017AA16A915A814120063E47BE87A03F9B9
:1003C100F81200EE8F178E168D158C14C3E4951755
:1003D100F517E49516F51674019515F515E49514C0
:1003E100F514E517240CF517E43516F516E4351563
:1003F100F515E43514F514AF17AE16AD15FC7808F4
:100401001201808F1985171A5389F04389018519C3
:080411008C851A8AD2A9D28C55
:0104190022C0
:03000B000204E00C
:0404E000C0E0C0D0E8
:1004E40085198C851A8A0518E518C3946440057526
:0404F4001800D20B0F
:0504F800D0D0D0E0327D
:10054500C0F9A4B0999282F880908883C6A1868E5E
:05055500898CFFBF8D41
:0A052400080803000205121200008F
:08056A007F6C7E91DEFEDFFCD8
:010572002266
:080573007FC8AE071FEE70FA0D
:01057B00225D
:10041A007D01E4FC8D80E5A0541F44C0F5A053A0E3
:10042A001F74082CF8E690054593F580E5A0541F43
:10043A0044E0F5A01205737801AF05EF08800123A7
:0D044A00D8FDFD7580FF53A01F0CBC08C736
:010457002282
:0F055A00AD071FED6009007E191EEE60F380FAF9
:01056900226F
:1004FD00C2AFC2947F3212055AD2947F0612055AAA
:0B050D00A294920A3094FDD2AFA20A23
:0105180022C0
:0204BA00AC078D
:1004BC00C2AF7B01EB601AC29400005C7004C29462
:1004CC008002D2947F0612055AD294EB25E0FB8071
:0304DC00E3D2AFB9
:0104DF0022FA
:10049000C2AF7B01EB601EC2940000D2940000202A
:1004A0009405F452048003EB42047F0612055AEBD4
:0904B00025E0FB80DFD2AFAF04B0
:0104B9002220
:10052F001204FD920920090A7FCC1204BA7F4412EB
:05053F0004BAA209B39B
:010544002294
:060458008B148A158916C1
:10045E001204FD92092009267FCC1204BA7FBE1227
:10046E0004BA120490AA07120490EFFE7C00E42A4C
:10047E00FFEC3EAB14AA15A9168FF0120044A20988
:01048E00B3BA
:01048F00224A
:100321000201E8E493A3F8E493A34003F68001F209
:1003310008DFF48029E493A3F85407240CC8C333DD
:10034100C4540F4420C8834004F456800146F6DFAC
:10035100E4800B0102040810204080900519E47E1E
:10036100019360BCA3FF543F30E509541FFEE493A1
:10037100A360010ECF54C025E060A840B8E493A368
:10038100FAE493A3F8E493A3C8C582C8CAC583CA93
:10039100F0A3C8C582C8CAC583CADFE9DEE780BE4B
:01052E0000CC
:10000E00C2D5EC30E709B2D5E4C39DFDE49CFCEE0D
:10001E0030E715B2D5E4C39FFFE49EFE120193C3F1
:10002E00E49DFDE49CFC800312019330D507C3E4EC
:06003E009FFFE49EFE227C
:10004400BB010A89828A83F0E5F0A3F0225006F707
:0F00540009A7F01922BBFE06F3E5F009F3192204
:10006300E88FF0A4CC8BF0A42CFCE98EF0A42CFC3C
:100073008AF0EDA42CFCEA8EF0A4CDA8F08BF0A4BA
:100083002DCC3825F0FDE98FF0A42CCD35F0FCEB19
:100093008EF0A4FEA9F0EB8FF0A4CFC5F02ECD39DE
:0F00A300FEE43CFCEAA42DCE35F0FDE43CFC224B
:1000B20075F008758200EF2FFFEE33FECD33CDCC05
:1000C20033CCC58233C5829BED9AEC99E582984088
:1000D2000CF582EE9BFEED9AFDEC99FC0FD5F0D665
:1000E200E4CEFBE4CDFAE4CCF9A88222B800C1B98F
:1000F2000059BA002DEC8BF084CFCECDFCE5F0CBCD
:10010200F97818EF2FFFEE33FEED33FDEC33FCEB05
:1001120033FB10D703994004EB99FB0FD8E5E4F9C0
:10012200FA227818EF2FFFEE33FEED33FDEC33FCAD
:10013200C933C910D7059BE99A4007EC9BFCE99AA1
:10014200F90FD8E0E4C9FAE4CCFB2275F010EF2FE6
:10015200FFEE33FEED33FDCC33CCC833C810D707E6
:100162009BEC9AE899400AED9BFDEC9AFCE899F821
:0E0172000FD5F0DAE4CDFBE4CCFAE4C8F922B4
:10018000E8600FECC313FCED13FDEE13FEEF13FF5D
:03019000D8F12281
:10019300BC000BBE0029EF8DF084FFADF022E4CC50
:1001A300F875F008EF2FFFEE33FEEC33FCEE9DEC19
:1001B300984005FCEE9DFE0FD5F0E9E4CEFD22ED5F
:1001C300F8F5F0EE8420D21CFEADF075F008EF2FA9
:1001D300FFED33FD4007985006D5F0F222C398FD9A
:0501E3000FD5F0EA2237
:00000001FF
